:1000000000308A0083280000871B21280130A007C8
:100010000230A1009630A200223084008313000831
:1000200003191F280630F800F701F70B1528F80B05
:1000300014287B30F700F70B1B28800B1228A10B2C
:100040000A28200B2528C03088002008023C031D08
:100050002B28F93088002008033C031D3128A430E8
:1000600088002008043C031D3728B0308800200891
:10007000053C031D3D28993088002008063C031DDF
:100080004328923088002008073C031D492882300D
:1000900088002008083C031D4F28F83088002008FD
:1000A000093C031D55288030880020080A3C031DA8
:1000B0005B289030880020080B3C031D61288830A5
:1000C000880020080C3C031D672883308800200826
:1000D0000D3C031D6D28C630880020080E3C031D12
:1000E0007328A130880020080F3C031D7928863032
:1000F00088002008103C031D80288E308800A00155
:100100008A110A12AB28840183131F3083058316DA
:1001100003178711403003139900E6309800D03060
:1001200083129800831603170908C0398900031346
:100130001F129F1200300317880083128701880165
:1001400089010313A001FF30831687000030880067
:0A015000831288010428AA28630026
:04400E00F22FFF3F4F
:00000001FF
;PIC16F887
